:1000000065C000007FC000007DC000007BC0000014
:100010007AC0000077C0000075C0000073C0000007
:1000200071C0000080C600006DC000006BC0000001
:1000300069C0000067C0000065C0000063C0000028
:100040005CC300005FC000005DC00000A0C60000EF
:100050000C94A90C57C0000055C0000053C000000C
:1000600051C000004FC000004DC000004BC0000058
:1000700067036203410352036B035A0341035A03AC
:1000800070035F037B035F03410357034D03570373
:1000900092047406E70474068D057406FF048E044A
:1000A0008D057406FF04E7048D057406FF04FF0543
:1000B00074062A067406560674064E06F70556069A
:1000C00074064E062A06560674064E0611241FBEF6
:1000D000CFEFD4E0DEBFCDBF11E0A0E0B1E0ECECAB
:1000E000FBE302C005900D92AC35B107D9F712E0E1
:1000F000ACE5B1E001C01D92A33FB107E1F7AED27C
:100100000C94E41D7DCF1F920F920FB60F92112415
:100110002F933F938F939F9329B3237080919F01D7
:10012000281791F1833041F4223099F480919A019B
:1001300090919B01019709C0823059F4233049F412
:1001400080919A0190919B01019690939B018093DD
:100150009A0180919A0190919B018D52914030F0CB
:100160008CE291E090939B0180939A0180919A0197
:1001700090919B01449730F484E190E090939B012F
:1001800080939A0120939F019F918F913F912F918E
:100190000F900FBE0F901F90189589B7816089BF8F
:1001A0008BE083BF8AEF81BF0895EDE7F0E08081A7
:1001B00084608083089580917D0086958695817006
:1001C000089580919C01982F92959695969593709D
:1001D000282F221F2227221F9227282F22952F7097
:1001E0009227282F2695269592279170880F892B84
:1001F00080939C010895159BFECF83B980E090E029
:1002000008958F708A3010F4805D01C0895CF3CF4F
:10021000CF93DF93EC01892F992782958F700097F8
:1002200009F0EFDF8D2F9927009709F0EADFCE0163
:1002300024E0969587952A95E1F7009709F0E1DF8C
:100240008C2FDFDFDF91CF91089522B1332727FD77
:1002500030952227330F221F3327C9010895179B9A
:10026000FECF83B190E00895E199FECF9FBB8EBB96
:10027000E09A8DB30895E199FECF9FBB8EBB6DBB15
:10028000F894E29AE19A7894089581B1886181B9ED
:1002900083E380B91CBE03C0E2DF8AE06FD5D5DFFF
:1002A000892BD1F70F9A8AB188698AB98FE189B908
:1002B00010BC80EC8ABB8CE38BBB8BEB87BB18BA82
:1002C0008FEF84BB81BB86B981E58DB908951F93FB
:1002D000182F80E992E060EB72E00E942D188823CD
:1002E00031F090918B0180918C019817D9F020E02A
:1002F00030E0F901E055FD4FD901A057BD4F8C9179
:1003000080832F5F3F4F2032310599F7112311F081
:100310001092D00210928301109284010E94680B07
:100320000E94AB0B80918C0180938B0180918401A2
:10033000809383011F9108951F93382F80918A0124
:10034000882329F080919701807C809397012091E8
:100350009701822F90E08F739070892B11F410E039
:1003600001C0132F60915E01661F6627661F809192
:100370008901682B422F42954695469541708091A0
:100380008801482B2F73812F820F0E94AB0D809123
:100390009701810F66D51F9108951F93182F909193
:1003A00097019F3FD9F0991F9927991F8091890143
:1003B000982B21F081E00E94C10D10C080E00E94C6
:1003C000C10D20919701822F90E08F739070892B3F
:1003D00019F0812F820F01C0822F2CD520915E0150
:1003E0002F3F99F0822F881F8827881F90918901BD
:1003F000892B59F0822F90E08F739070892B19F020
:10040000812F820F01C0822F15D51F910895EF9281
:10041000FF920F931F938C0181E00D32180718F0A3
:100420000CE211E005C00431110510F404E110E004
:10043000109399010093980110939B0100939A01E6
:100440008091640181FD09C085E090E0612F13DF98
:1004500086E090E0609198010EDF80919801909184
:1004600099010E94710C80E390E0089F9001099F20
:10047000300D189F300D112440E050E060E070E72F
:1004800088E399E30E94851D79018A01C801AA27A2
:10049000BB279C01887F892B69F4B3E016950795EB
:1004A000F794E794BA95D1F7F0929E01E0929D01FE
:1004B00082E051C0C901807F892B69F4A4E01695C0
:1004C0000795F794E794AA95D1F7F0929E01E092F0
:1004D0009D0186E040C0C901807E892B69F4F5E06A
:1004E00016950795F794E794FA95D1F7F0929E0147
:1004F000E0929D0187E02FC0C901807C892B69F4BF
:10050000E6E016950795F794E794EA95D1F7F0920F
:100510009E01E0929D0183E01EC0C9018070892B7D
:1005200051F4BB27A12F902F8F2D90939E01809384
:100530009D0184E010C020703C7F232B79F46AE099
:1005400016950795F794E7946A95D1F7F0929E0176
:10055000E0929D0185E080938A0002C010928A009B
:1005600080919D0190919E01909581959F4F9093D0
:100570009E0180939D0190938900809388001F9134
:100580000F91FF90EF9008951F93EBE6F0E08081CC
:10059000816080838081826080838BB788608BBF1D
:1005A00085E090E061DE182F86E090E05DDE312F7F
:1005B00020E090E0822B932B2ADF10925D01EDE783
:1005C000F0E08081846080831F91089585E267D781
:1005D000EDE7F0E080818B7F80830895EF92FF92BA
:1005E0000F931F93CF93DF9300916401C0E0D0E09D
:1005F00011E091E0E92EF12C8091640190E00C2E45
:1006000002C0959587950A94E2F780FF03C0812F79
:10061000E1D703C0812F0E94100B2FD690E00197E5
:10062000C817D90741F4C7010C2E02C0880F991FC3
:100630000A94E2F7082721961F5F1930E9F68091A6
:100640006401801731F087E090E0602F14DE0093A2
:100650006401CDB7DEB7E6E00C94CF1D0F931F9376
:1006600014DE92DF9ADD8091980180939C012FD552
:10067000FBD4789487E090E0F7DD8093640102E09A
:1006800011E00CD68091C701E82FF0E0E031F105D0
:10069000C0F7E85CFF4F0C94DE1D10925C010E94D5
:1006A000500CEFCF10925C010E94B117EACF10926C
:1006B0005C0102C010935C010E948418E2CF009399
:1006C0005C01FACF10925C010E947610DACF109292
:1006D0005C0160D4D6CF10925C010E94C80DD1CFCE
:1006E00010925C0162DD06D7D9D58091C7018830B0
:1006F000D9F36CDFC6CF72DFC4CF1F920F920FB653
:100700000F9211241F932F933F934F935F936F93F7
:100710007F938F939F93AF93BF93EF93FF938091BA
:1007200074018F3F29F0809174018F5F8093740171
:1007300080919401909195018F5F9F4F49F0809136
:100740009401909195010196909395018093940165
:1007500080918101909182018F5F9F4F49F080913C
:100760008101909182010196909382018093810191
:1007700010915C011130B9F080916E0190916F0180
:10078000892B51F180916E0190916F0101979093A7
:100790006F0180936E0180916E0190916F01892BA2
:1007A000D9F4949819C090B3929591708091720188
:1007B000882381F4992371F080916C0190916D01EF
:1007C000019690936D0180936C0188EF2DD3109367
:1007D000720102C090937201EEDC882391F4809143
:1007E0006501883C21F410926501A7D705C080916E
:1007F0006501843609F494D7809165018F5F8093F9
:100800006501FF91EF91BF91AF919F918F917F9182
:100810006F915F914F913F912F911F910F900FBE5C
:100820000F901F9018951F931091C701F894209175
:100830006B0130E0609159016695669588E190E022
:1008400070E00E94721D26173707B4F010926B01FA
:1008500080915F01882321F080918E0180938D012A
:1008600080915D0180FD08C090E080915F01882348
:1008700009F491E090935F0180915C018150823096
:1008800048F080916B0180FF02C0949803C0949A55
:1008900088EFCAD280915F01882339F090916B0173
:1008A00080918D01981729F40BC080916B018823EA
:1008B00039F080916B018F5F80936B01789431C226
:1008C00080916B018F5F80936B0190E0809161015B
:1008D000882309F491E0909361018091620188235B
:1008E00021F480916301882319F0992309F012C241
:1008F00080915D01883010F010925D0180915D0162
:10090000212F30E080FF65C1F9013197EF30F1050B
:1009100008F0EAC1E85BFF4F0C94DE1D8091830173
:100920003CDDE2C180917E02882321F48091720235
:10093000882361F0909197019F3F41F0991F99277B
:10094000991F80918901892B0E94C10D80917202AB
:10095000882309F4C9C1E0917B0280915901E8170D
:1009600038F4F0E0E058FD4F80818F3F09F0BCC1C2
:1009700010927B02E0917902EF5FE0937902E0311F
:1009800050F4F0E0EE0FFF1FEE5AFD4F8081918191
:100990008F5F9F4F11F410927902E0917902F0E09D
:1009A000EE0FFF1FEE5AFD4F8081918190937502EB
:1009B000809374028F5F9F4F21F48FEF80938002AA
:1009C00093C10E94E00F80938301A9D58DC18091CE
:1009D0007E02882309F488C180918301DEDCE091E6
:1009E0007B0280915901E81738F4F0E0E058FD4FA0
:1009F00080818F3F09F078C110927B0275C1809190
:100A0000D102882309F470C180918301C6DC8091F2
:100A10009001882391F120917B0230E080915A016E
:100A200090E001972817390741F580918401809360
:100A300083019091930180916201891759F09093FD
:100A400062019093610110926301992319F481E08E
:100A50008093630180E992E060EB72E00E942D18C0
:100A6000882359F49091590190937B0281E08093FF
:100A70005A0190935B0110929001E0917B0280916A
:100A80005901E81738F4F0E0E058FD4F80818F3FBE
:100A900009F02AC19091930180916201891759F060
:100AA000909362019093610110926301992319F46C
:100AB00081E08093630110927B02E091D002EF5FAE
:100AC000E093D002E03230F4F0E0E055FD4F808159
:100AD0008F3F11F41092D00281E0F9DBE091D00257
:100AE000F0E0E055FD4F80918B0160810E94791705
:100AF00010925B0103C09F5F90935B0190915B013B
:100B000080915901981709F4EFC0E92FF0E0E058FF
:100B1000FD4F80818F3F79F7E7C08091D102882314
:100B200009F4E2C0109183018091740290917502E2
:100B30000E946F0F810F31DCE0917B02809159019F
:100B4000E81738F4F0E0E058FD4F80818F3F09F05E
:100B5000CBC010927B02E0917902EF5FE0937902C3
:100B6000E03150F4F0E0EE0FFF1FEE5AFD4F8081B0
:100B700091818F5F9F4FE9F410927902E091D0024A
:100B8000EF5FE093D002E03230F4F0E0E055FD4F4B
:100B900080818F3F21F41092D00280E098DBE091B9
:100BA000D002F0E0E055FD4F80918B0160810E9402
:100BB0009F0FE0917902F0E0EE0FFF1FEE5AFD4F1C
:100BC0008081918190937502809374020E94E00F5E
:100BD0008BC08091970180935E01F9013197EF30CE
:100BE000F10508F081C0E95AFF4F0C94DE1D809199
:100BF000960180939701E5DA8093960128C0809151
:100C00007E02882329F480917202882379F46CC0D3
:100C1000E0917B0280915901E81730F4F0E0E05850
:100C2000FD4F80818F3F11F410927B02E0917B0297
:100C3000F0E0E058FD4F8081809397010E944618B4
:100C400080937B02809197018F3F09F44DC0809182
:100C5000830149C080917E02882309F445C05FD496
:100C600080917B0269D4E0917B02F0E0E058FD4F77
:100C70008081809397010E94461880937B02909117
:100C800097019F3F89F180916001882319F4892F92
:100C90008CD520C080917A024FD41CC08091D102A3
:100CA000882321F03CD480917B0246D48091D102EC
:100CB0008823D1F0E0917B02F0E0E058FD4F808185
:100CC000809397010E94461880937B028091970140
:100CD0008F3F51F0109183018091740290917502C1
:100CE0000E946F0F810F28DB80915D01843020F41A
:100CF00085E2A0D322D507C080915D01883018F429
:100D000085E2CDD30DD5FCD480915D018F5F8093BA
:100D10005D0106C080916301882311F01092630188
:100D200078941F9108951F920F920FB60F9211247D
:100D30002F933F934F935F936F937F938F939F93E3
:100D4000AF93BF93EF93FF9380919D0190919E018C
:100D5000909389008093880066DDFF91EF91BF91A9
:100D6000AF919F918F917F916F915F914F913F9143
:100D70002F910F900FBE0F901F90189520EA3FE023
:100D8000E22FF32F3197F1F78A95D1F708951F924B
:100D90000F920FB60F9211248F939F93EF93FF93AF
:100DA0009CB1983FC9F480915C01823039F4949AE7
:100DB00085E090E090936F0180936E018091D10265
:100DC000882349F180916701909168010196909381
:100DD0006801809367011FC080916A01E82FF0E0ED
:100DE000EF55FE4F90838F5F80936A0180916A0177
:100DF0008F7180936A0190916A01809169019817BF
:100E000051F4809169018F5F80936901809169013C
:100E10008F7180936901FF91EF919F918F910F9056
:100E20000FBE0F901F9018955D9BFECF8CB980E090
:100E300090E008951F93182F8091A0018068F4DF3F
:100E4000812F90E08F739070892B11F480E003C0A4
:100E50001F73812F875EE8DF80910101E5DF1F911D
:100E600008951F93182F8091A0018069DDDF812FE5
:100E700090E08F739070892B21F480E0D5DF80E0C3
:100E800010C0812F8F73875ECFDF812F829586956B
:100E90008695837080FF03C08091000102C080911D
:100EA0000201C2DF1F9108959091690180916A014A
:100EB00020E030E0981711F021E030E0C9010895FA
:100EC0009091690180916A019817D1F3F8949091FB
:100ED0006901E92FF0E0EF55FE4F80819F5F90930D
:100EE0006901909169019F7190936901789490E0F4
:100EF0000895DADF892BB1F0E3DF482F87FF12C0B6
:100F0000582F52955F705F3071F0282F30E02F70AE
:100F100030708091C10190E02817390719F450937F
:100F2000660101C040E0842F08958091A001806B8C
:100F30007BDF8BE779DF80E077CF80915C018230C7
:100F400019F08CEF71DFF1CF089590915E01891750
:100F500029F480E016D68FEF80935E010895982FD4
:100F6000262F662321F4882311F060E0EECF60E0A5
:100F700080915E018F3F09F061E090935E019923BB
:100F800009F499E1892F8951253610F041E001C01B
:100F900040E0E1C50F931F9319DBC1D28091C101DD
:100FA000CBD27CD184E6EADE79D184E6E7DE76D165
:100FB0000091CE018FEF80935E0170D18091C701C7
:100FC000882321F0B2DF1F910F9108956091CE0127
:100FD000061759F06093C10183E090E04CD99FD28D
:100FE0008091C101A9D20091CE015EDF892B29F346
:100FF00067DF482F87FF15C0582F52955F705F300D
:1010000051F0282F30E02F7030708091C10190E0B6
:101010002817390719F45093660103C0109266012E
:10102000CCCF80916601883071F0893009F0C5CF4E
:1010300047FD02C0142F02C043DF182F41DF682F85
:10104000812F8DDFBACF47FD02C0142F02C038DFD9
:10105000182F36DF682F812F78DFAFCF90E004D9CB
:10106000803108F08FE0089583E0F8DF8093C101BC
:1010700084E0F4DF8093A001089580915C018130C9
:1010800009F09798089590B3991F9927991F809117
:101090007001882331F4992321F09093700181E04D
:1010A00008959093700180E0089590B3991F992757
:1010B000991F80917101882331F0992321F41092B6
:1010C000710181E008959093710180E0089581B3EA
:1010D000806F81BB82B38F7082BB089581B38F70A4
:1010E00081BB82B38F7082BB08951F9364D8182F81
:1010F00080915C018130B9F0112309F067DA94988E
:10110000979A85E03BDE80919D0190919E010A9720
:10111000909389008093880010926B0110925D017A
:10112000112309F042D81F910895AC01F894C0989A
:101130000000000000000000C09A20E030E01FB86E
:10114000779BFECF8FB1FA01E20FF31F80832F5FF1
:101150003F4F2330310599F778940895DE9808952C
:10116000DE9A089529B3269526952F70822F90E058
:101170002695322F369536952270322B880F991F7F
:10118000282F2470322B880F991F880F991F887081
:10119000382B8FE0831B089589B3869586958F70D1
:1011A0000895282FFB01883110F080E0089586957E
:1011B00086958695E80FF11D808190E0277002C02A
:1011C000959587952A95E2F78170089568EC71E00E
:1011D000E8CF64EC71E0E5CF6BEC71E0E2CF809199
:1011E000C801882359F48091C901882339F490E01B
:1011F0008091CA01882319F491E001C090E0892F01
:1012000008950F931F93CF93DF93062FEC0110E007
:1012100009C08991DBDF912F9F5F882311F0892F0F
:1012200004C0192F1017A8F380E0DF91CF911F9110
:101230000F91089583E091E06DE0E3DF8150089520
:1012400083E191E068E0DDCF0F931F93CF93DF93AD
:10125000062FEC0110E009C08991BBDF912F9F5F41
:10126000882311F0892F04C0192F1017A8F380E0EC
:10127000DF91CF911F910F91089583E191E068E094
:10128000E3CF83E091E060E1DFCF83E091E06DE0C8
:10129000DBCF80917301109273010895A6E0B0E056
:1012A000E4E5F9E00C94B31D20919A0130919B0183
:1012B00080919801909199012817390711F0C9017F
:1012C000A6D81092C4011092CB011092C5011092C1
:1012D000CC011092C6011092CD018091740184312D
:1012E00008F48FC01092740139DF8E010F5F1F4F19
:1012F000C8011BDF8091C8018C838091C9018D8357
:101300008091CA018E8340E050E061E0E62EF12C2E
:10131000E42FE695E695E695F0E0BF0168537E4F31
:10132000DB013C91CA0187709070D70102C0AA0FFF
:10133000BB1F8A95E2F7CD01DF01A153BE4FAC91EF
:10134000A823E00FF11FE081E823232F28238095B5
:10135000222311F0EA2B01C0EA238323E82BDB01CF
:10136000EC934F5F5F4F4831510591F6FBDE982FAC
:101370008091CE01981749F08091C301981729F404
:101380009093CE0181E0809373019093C301E8DED6
:1013900040E050E08E010F5F1F4FBE016C5F7F4F3A
:1013A000DA01A153BE4FF801E40FF51F80818C9341
:1013B000FB01E40FF51F2081FA01E853FE4F9081F5
:1013C000FA01EC53FE4F822F809589238083FA0126
:1013D000E553FE4F9095922390834F5F5F4F4330CC
:1013E0005105F1F6D9DE982F8091C701981731F099
:1013F0008091C201981711F49093C7019093C20194
:101400007FD12696E6E00C94CF1D282F883288F4F1
:10141000869586958695FB01E80FF11D277081E082
:1014200090E002C0880F991F2A95E2F72081282BAF
:101430002083089565E771E0E8CF6AE771E0E5CFC2
:10144000282F883298F4E82FE695E695E695F0E0A7
:10145000E658FE4F277081E090E002C0880F991F88
:101460002A95E2F780952081822380830895E82FD2
:10147000883210F020E011C0282F277081E090E022
:1014800002C0880F991F2A95E2F7E695E695E69542
:10149000F0E0E658FE4F20812823822F0895282F60
:1014A000883298F4E82FE695E695E695F0E0EB585B
:1014B000FE4F277081E090E002C0880F991F2A95A7
:1014C000E2F780952081822380830895982F969556
:1014D00096959695E5E7F1E0E90FF11D208130E062
:1014E000877002C0359527958A95E2F72170307094
:1014F000C901089510927901109278011092770134
:10150000109276011092750110927E0110927D0169
:1015100010927C0110927B0110927A010895CF9372
:10152000DF93C8E4D1E08991BADF81E0C835D807FC
:10153000D1F7DF91CF910895803130F4E82FF0E0BA
:10154000E85BFE4F808176CF0895803130F4E82F3C
:10155000F0E0E85BFE4F808170CF0895803110F09D
:1015600080E00895E82FF0E0E85BFE4F8081AECF89
:10157000803110F080E00895E82FF0E0E85BFE4F46
:10158000808175CF883130F4E82FF0E0E05DFE4FC8
:10159000808150CF0895883130F4E82FF0E0E05D8D
:1015A000FE4F80814ACF0895883130F4E82FF0E073
:1015B000E05DFE4F808173CF0895CF93DF93C0E34A
:1015C000D1E089916CDF81E0C834D807D1F7DF9191
:1015D000CF910895E82F8150883028F4F0E0E95D3C
:1015E000FE4F808127CF08950F931F93CF93DF93F2
:1015F000082FC8E2D1E011E0101739F4E12FF0E034
:10160000E95DFE4F808116DF02C0888148DF1F5FE1
:101610002196193089F7DF91CF911F910F9108958D
:10162000E82F8150883028F4F0E0E95DFE4F80819A
:1016300036CF0895E82F8150883028F4F0E0E95D36
:10164000FE4F8081FACE0895E82F8150883010F047
:1016500080E00895F0E0E95DFE4F808108CFE82F3B
:101660008150883010F080E00895F0E0E95DFE4F91
:1016700080812CCFCF93DF93C8E2D1E089910FDF37
:1016800081E0C033D807D1F7DF91CF9108958D3035
:1016900030F4E82FF0E0E55EFE4F8081CBCE089578
:1016A0008D3030F4E82FF0E0E55EFE4F8081F7CE1C
:1016B00008958D3030F4E82FF0E0E55EFE4F808134
:1016C000BCCE0895EBE1F1E0E80FF11D8081CFCEB3
:1016D000CF93DF93CBE1D1E08991E1DE81E0C832A5
:1016E000D807D1F7DF91CF910895F2DF84E0D7DEFC
:1016F00083E0D5DE88E0D3DE81E0D1DE82E0CFCEAC
:10170000F894DF98E5E7F1E080818FB9779BFECF11
:10171000319681E0EA37F807B9F7DF9A78940895AF
:10172000E5E7F1E0AAE7B1E080819D91892B819303
:1017300081E0EA37F807C1F70895E5E7F1E0AAE7A5
:10174000B1E09D91909580818923819381E0EA3772
:10175000F807B9F70895E5E7F1E0AAE7B1E02081DD
:101760009C91892F822319F09095922390831D924A
:10177000319681E0EA37F80791F708951F93182F03
:1017800084E08DDE123019F483E057DE0CC083E074
:1017900086DE83E055DE113011F483E003C01F3F85
:1017A00011F484E047DE1F9108950F931F93CF93A8
:1017B000DF93182F87FF03C086E1E4DE02C086E1D5
:1017C000F3DE812F829586958695837080FF03C016
:1017D00085E1D8DE02C085E1E7DE1F7339F01731FD
:1017E00010F48FEF11C0143218F41C5080E00CC0BC
:1017F000103318F4185181E007C01C3318F4145248
:1018000082E002C0105383E0B9DF112321F460DFCE
:1018100084E1B8DE17C084E1C7DECBE0D0E0012F61
:1018200010E0C017D10729F0FE01E05FFE4F808174
:1018300036DE2196C831D105A1F7005F1E4FF801B1
:101840008081F8DDDF91CF911F910F9108950F9363
:101850001F93FC0180E00EE01CE1B8E3A0E750EE2E
:1018600047EC39E817C020812827922F80E020FD1F
:1018700087E091FD802792FD812793FD8B2794FDC2
:101880008A2795FD852796FD842727FD83276150AC
:10189000704031966115710531F71F910F910895D0
:1018A000FDDC8091C7018E30D9F324DE29CFEF9281
:1018B000FF920F931F93CF93DF937C018B01C0E0C6
:1018C000D0E007C0F701EC0FFD1F80810E94FB00F4
:1018D0002196C017D107B0F3CDB7DEB7E6E00C9480
:1018E000CF1D0F931F9302ED11E022E42093D2014C
:1018F0001092D30122E02093D4019093D5018093DC
:10190000D601C80165E070E0A2DF8093D701C8016D
:1019100066E070E0CCDF1F910F9108950F931F9345
:1019200002ED11E090E89093D2011092D30191E082
:101930009093D4018093D501C80164E070E087DF03
:101940008093D601C80165E070E0B1DF1F910F916F
:1019500008951F920F920FB60F9211240F931F93A9
:101960002F933F934F935F936F937F938F939F93A7
:10197000AF93BF93CF93DF93EF93FF9313B1809116
:101980005801882309F4D2C080918101909182018D
:10199000895E934020F0C3DDB3DE10927F01809119
:1019A0007F01803448F4E82FF0E0EE5EFD4F1083B5
:1019B0008F5F80937F0103C0B1DF10927F0110928F
:1019C00082011092810130917F01333008F4AEC062
:1019D000009112029091130280E020911402622F74
:1019E00070E0682B792B232F30E0CB010496281769
:1019F000390708F49BC0EB012396FE01EE5EFD4F14
:101A0000108182E192E0BE0122DF181761F082E1CD
:101A100092E0BE011CDF90E00E94080110927F015D
:101A200080E07CDF83C0013119F1023138F40130EC
:101A300009F476C0003109F452C074C0003419F0C2
:101A4000013439F06FC0809198019091990149DF7C
:101A50006BC080911402823009F064C0909115022D
:101A600080E020911602820F911D0E9407025CC047
:101A700080911402823009F055C080911502082F20
:101A800010E033E0000F111F3A95E1F78091160244
:101A9000080F111D24E0000F111F2A95E1F789E1BD
:101AA0008093D2011092D30180E18093D401C5EDDF
:101AB000D1E0C801FCD189930F5F1F4F81E0C53E83
:101AC000D807B9F78E0103511040C80163E170E0F7
:101AD000BEDE8883C80164E170E0E9DE25C0809144
:101AE00014028231F9F480911502082F10E093E07E
:101AF000000F111F9A95E1F780911602080F111D32
:101B000084E0000F111F8A95E1F7C7E1D2E08991C7
:101B1000B80190D10F5F1F4F22E0C732D207B9F74B
:101B200081E001C080E0FADE10927F01FF91EF9129
:101B3000DF91CF91BF91AF919F918F917F916F91E5
:101B40005F914F913F912F911F910F910F900FBE79
:101B50000F901F9018953A98803408F08FE3611128
:101B600060E4442311F090E001C090E8882331F054
:101B7000682B962B95BB3A9A399A0895962B95BB6C
:101B80000895882311F0AE9A01C039983A980895C3
:101B90004F925F927F928F929F92AF92BF92CF921D
:101BA000DF92EF92FF920F931F93DF93CF93CDB706
:101BB000DEB7C058D0400FB6F894DEBF0FBECDBF21
:101BC0000E94E602ACDC6ADB64DBCC24DD248824E2
:101BD00077242E010894411C511C60DB8091C701C1
:101BE0008430C1F0A2D9C058DF4F0FB6F894DEBFE1
:101BF0000FBECDBFCF91DF911F910F91FF90EF905E
:101C0000DF90CF90BF90AF909F908F907F905F902C
:101C10004F9008958091A001A1DC882321F47FDCFE
:101C20008091A00189DC35DB882341F06091CE01F1
:101C30006093A00184E090E00E943B018C2D9EDD2A
:101C4000C601880F991F8C0D9D1DE82EEE0CEE0C21
:101C5000A82CA294AA0CAA0C20ECA22287E1E80EE0
:101C600000E010E09E2CF02EF801ED5FFE4FB080FA
:101C70008B2DAFDA882369F08E2D800F672D482DCC
:101C80006ADF892D800F8A29ECD8802F00DD772428
:101C900073948B2DA1DA882331F08E2D8F0D8A2934
:101CA000C9D88F2DFDDC0F5F1F4F0D301105D9F600
:101CB0008FE08FDA882341F082E0C816D10484F4E3
:101CC0000894C11CD11C0CC08EE083DA882341F03B
:101CD0008FEFC8168FEFD80619F00894C108D10805
:101CE00085E177DA882361F080E0882009F481E0DB
:101CF000882E882319F081E09DDB02C081E0CFDBD4
:101D000088E067DA882381F181E060DA882361F175
:101D10008091CE01E82EFF24F694FE2CEE24F79459
:101D2000E79480EF81D88DE77FD883E07DD883E08A
:101D30007BD882E179D880E077D880E075D880E0E0
:101D400073D800E0802FA3DCC701800F911DAFD0B6
:101D5000182F82958F7068D8812F8F7065D80F5F8C
:101D6000003881F787EF60D883E033DA882309F4FD
:101D700051C081E02BDA882309F44CC08091CE0158
:101D8000E82EFF24F694FE2CEE24F794E79403C08B
:101D9000B0D8882329F487E119DA8823C9F33AC037
:101DA000803F09F037C08CD88D37910509F032C0DB
:101DB00087D8039779F584D8039761F581D842973E
:101DC00049F57ED8892B31F57BD8892B19F578D840
:101DD000892B01F500E00DC073D8182F71D8F201DE
:101DE000E00FF11D1295107F180F10830F5F003860
:101DF00021F087E1EBD9882379F310E0612F70E0BF
:101E0000F201E60FF71F6E0D7F1D808113D01F5F5B
:101E10001038A1F783B390E08F739070892B09F489
:101E2000DCCEDDD9882309F4D8CE80E0AADE50DCF0
:101E30007724D3CE282FF89495E0C09800000000B6
:101E4000000000009FB9779BFECF0000000000005B
:101E500000001FB8779BFECF8FB1C09A0000000032
:101E60000000000080FDE9CFC0980000000086E07F
:101E70008FB9779BFECF00000000C09A00000000E1
:101E800000000000C0980000000082E08FB9779B3E
:101E9000FECF7FB9779BFECF6FB9779BFECF2FB96F
:101EA000779BFECF00000000C09A78940895282FF9
:101EB000F894C0980000000083E08FB9779BFECFB4
:101EC0009FB9779BFECF2FB9779BFECF0000000014
:101ED0001FB8779BFECF8FB1C09A78940895892F51
:101EE0008F7184FD806E08950F931F93CF93DF93BE
:101EF000C82FD0E093E0CC0FDD1F9A95E1F7C60F15
:101F0000D11DC05CDF4F85E0CC0FDD1F8A95E1F766
:101F100002E512E0F8018181BE018CDF2196F80113
:101F20008081BE0187DF0E5F1F4F2196F2E00237EE
:101F30001F0781F7DF91CF911F910F910895EF92C5
:101F4000FF920F931F93CF93DF93C82FD0E043E00E
:101F5000CC0FDD1F4A95E1F7C60FD11DC05CDF4FE6
:101F600035E0CC0FDD1F3A95E1F722E5E22E22E0C5
:101F7000F22ECE019CDF182F00E0F70111830083C1
:101F8000CE01019694DF90E0802B912BF701819395
:101F900091937F012296F2E7EF16F2E0FF0649F7F0
:101FA000CDB7DEB7E6E00C94CF1D1092760210920A
:101FB0007E021092720280E0E4DD9CDACCDB69C91B
:101FC000EF92FF920F931F9380917402909175028C
:101FD000682F6770E3E096958795EA95E1F78F7033
:101FE00088D780917402909175027C0100E010E026
:101FF000A80197012070307840705070232F342F43
:10200000452F552720938A01A8019701207030742D
:1020100040705070232F342F452F5527209388016F
:1020200020E030E240E050E0E222F32204231523D6
:10203000EF2CF02E012F1127E092890110927B02E4
:102040004EDF1F910F91FF90EF90089581E08093F4
:10205000760281E2EFD910928801109289011092E4
:102060008A011092720210927E0280915202909127
:10207000530290937502809374028F5F9F4FA1F07B
:102080001092790210927B021092970199DF80934F
:10209000830180915D0180FDFCCF80916B018630D2
:1020A000C0F381E0809372023ACA81E080937702A4
:1020B00084E2C0D934CA1092770284E2F0D91ADAE5
:1020C0004ADB10927E0280E05CCD80918301882300
:1020D00019F483E0E4D908C087FF04C083E0DFD9A6
:1020E00084E0A8C983E0A6D984E0D9C9AF92BF92A1
:1020F000CF92DF92EF92FF921F93CF93DF930E94D4
:10210000D5008091CE01877080937302109278027F
:1021100010927702109276021092720210927E0252
:10212000109279028FEF9FEF909375028093740263
:1021300010925C01F4D90FDBEE24EA94FE2CC12C42
:1021400040E2D42EA12C30E4B32EA8D88091C70150
:102150008130A1F00E94E60210927E02109272027B
:1021600080E00FDDC7D9CCDADF91CF911F91FF90CE
:10217000EF90DF90CF90BF90AF900895809177025D
:10218000882319F5809176028823F9F482D8882370
:1021900049F08091CE01877080937302609178023C
:1021A000CEDEBDD980917302C7D94AD8182F8823B3
:1021B00041F08EDA612F6150609378028091730252
:1021C000BEDE809178028F5F05DA81E002D8882335
:1021D00061F080917602882311F0E7DE06C08091DD
:1021E0007702882309F067DF31DF80917602882348
:1021F00029F480917702882309F445C080917902FF
:10220000B7D9882309F4A7DA809179029ED9809101
:102210007402909175028F5F9F4F19F466DA80E027
:102220002EC080E03CD9809174029091750223E029
:10223000969587952A95E1F78F707ED980917402E3
:102240009091750297FF03C088E0F4D802C088E03F
:1022500026D98091740290917502A0E0B0E096FFBB
:1022600003C081E0E7D802C081E019D980917402EF
:1022700090917502A0E0B0E095FF03C082E0DAD84B
:1022800002C082E00CD988E00E94E908882331F47A
:1022900083E00E94E908882309F463C080917602F4
:1022A000882309F05EC06DDC80917702882379F184
:1022B00088E00E94E90820917902882381F0E22FCA
:1022C000F0E0EF30F1054CF5EE0FFF1FEE5AFD4F39
:1022D000808191818F5F9F4F01F12F5F15C0222375
:1022E00091F4E22FF0E0EF30F10574F4322F3F5F0C
:1022F000EE0FFF1FEE5AFD4F808191818F5F9F4F40
:1023000019F0232FEECF21502093790208C088E0E6
:102310000E94E908882319F0C8DE10927902E09142
:102320007902F0E0EE0FFF1FEE5AFD4F80819181A0
:10233000909375028093740210927E028F5F9F4F7C
:1023400081F03EDE8093830110927B0280915D01DB
:1023500080FDFCCF80916B018630C0F381E08093DB
:102360007E0287E10E94E9088823E9F080917702E4
:102370008823A1F080917902E82FF0E0EF30F10599
:1023800034F4EE0FFF1FEC5AFD4FF182E082F09221
:102390007502E09274028FDE80E081D88091730232
:1023A00060917802A1DD80917702882309F459C1F8
:1023B00080917402909175028F5F9F4F09F4F6C06F
:1023C00084E10E94E9088823E9F0E0917902F0E0D5
:1023D000EE0FFF1FEE5AFD4F808191818050904893
:1023E000918380839093750280937402A0E0B0E0A3
:1023F00080709078A070B070892F9A2FAB2FBB2778
:1024000080938A0185E10E94E9088823E9F0E09140
:102410007902F0E0EE0FFF1FEE5AFD4F80819181AF
:102420008A259B2591838083909375028093740203
:10243000A0E0B0E080709074A070B070892F9A2FE7
:10244000AB2FBB278093880186E10E94E90888238F
:10245000E9F0E0917902F0E0EE0FFF1FEE5AFD4F38
:10246000808191818C259D25918380839093750235
:1024700080937402A0E0B0E080709072A070B070A1
:10248000892F9A2FAB2FBB27809389018FE00E9461
:10249000E608882331F48EE00E94E608882309F4D8
:1024A00074C00E941A09C82FDD27C7FDD0958FE0A0
:1024B0000E94E908882329F48EE00E94E908882315
:1024C00041F049D905D983E00E944F0A84E00E9477
:1024D0004F0A8FE00E94E608882331F183E00E94D2
:1024E0001A0A4FEFCF3FD407B9F035D93C2F222736
:1024F0008091740290917502907E282B392B309335
:10250000750220937402E0917902F0E0EE0FFF1F54
:10251000EE5AFD4F318320838091740290917502B1
:10252000DEDC809383012FC08EE00E94E6088823C2
:1025300009F43CC084E00E941A0A8FEFCF3FD8070D
:10254000D1F009D92C97CF71D0703C2F22278091E0
:10255000740290917502907E282B392B309375026E
:1025600020937402E0917902F0E0EE0FFF1FEE5A23
:10257000FD4F318320838091740290917502AFDC0E
:1025800080938301845F95D811C08FE00E94EC088E
:10259000882329F48EE00E94EC08882339F083E038
:1025A0000E944F0A84E00E944F0AD5D88FE00E9413
:1025B000E608882309F055C08EE00E94E6088823CB
:1025C00009F04FC00E943D09182F882329F40E946A
:1025D0004909882309F43EC04DD80E948F0A11236F
:1025E00059F480917402909175022FEF8F3F9207FA
:1025F00021F0182F177001C0115010927E0280E058
:10260000C0DA8091CE01412F50E0282F30E0B3E0B6
:10261000220F331FBA95E1F7422B532B50937502CB
:1026200040937402E0917902F0E0EE0FFF1FEE5A42
:10263000FD4F51834083612F5CD410927B02109236
:1026400089011092880110928A011092830181E021
:1026500080937E023ADD8091740287708F5F0E94C2
:10266000F40A80917602882309F46FCD2EDD8091E3
:10267000740287708F5F0E94F40A67CD81E08093B7
:10268000770284E20E941A0A0E948F0A80E00E9468
:102690009C0A80E076CA10927B0281E080937C02E3
:1026A00081E20E941A0A80E06CDA80915C01882342
:1026B00041F480915D0180FDFCCF80916B018630FB
:1026C000C0F381E080937E028093D1028AEF0C9464
:1026D000140741D80E94DD0A0E948F0A8091CE0122
:1026E0000E949C0A80E04DCA1092770284E20E9408
:1026F0004F0A1092850180E00E944F0AEACF1092A3
:102700007E02E7DF10927C0281E20E944F0A109263
:10271000D1028CEF0C9414078091D102882309F127
:1027200080915C01823061F4809167019091680131
:1027300018161906B4F410926801109267010DC0C2
:10274000813079F480916C0190916D011816190611
:1027500044F410926D0110926C010E9413040E94C7
:10276000130480915C01823079F40E947907982FDC
:1027700080938601882341F08091C701833021F442
:10278000892F90E00C94080108950F931F93CF9325
:10279000DF93182F062F0E94800BC12FD0E093E00B
:1027A000CC0FDD1F9A95E1F7C00FD11D84E0CC0F4F
:1027B000DD1F8A95E1F700E812E0F80181918F01B1
:1027C000BE0138DBA9DF2196F2E000391F07A9F727
:1027D0000E94800BDF91CF911F910F910895A5E08A
:1027E000B0E0E5EFF3E10C94B11D82E00E94E9084E
:1027F0008823A9F080E00E94E608882381F4809174
:1028000059018F3029F480E1809359018FEF04C082
:102810008FE08093590181E080938F0262C080E055
:102820000E94E608882379F082E00E94E908882364
:1028300009F45AC0E0E8F2E08FEF819392E0E039CA
:10284000F907D9F74EC080E00E94EC08882309F40C
:102850004BC080917C02882309F446C080915901C5
:10286000803109F041C0DE011196EBE8F2E085E02D
:1028700001900D928150E1F7809184029091850240
:1028800090938C0280938B028091800280938D02C2
:102890008091890290918A0290938F0280938E0298
:1028A00080918602809380028091820290918302BF
:1028B00090938A0280938902809188028093820299
:1028C00080918102809388028091870280938102A7
:1028D000A3E8B2E0FE01319685E001900D928150AF
:1028E000E1F781E08093850117DF80917C028823E6
:1028F000E1F080915C01882329F481E00E94E908DD
:10290000882379F480915C01823029F480918601DA
:102910008C3F39F00AC0813041F40E945508882369
:1029200021F0EDDE1092600118C080915C018823D7
:1029300029F481E00E94E908882349F480915C0130
:10294000823059F4809186018A5F823030F4809120
:102950007702882309F0C8DE9EDE80917C028823FE
:1029600029F480917702882309F40AC180916001DB
:10297000882319F0E0917A0202C0E0917B02CE2E0A
:10298000DD2420E8E22E22E0F22EEC0CFD1CF70103
:1029900010811F731F3369F185E10E94E9088823C4
:1029A00041F0F701808190E48927808381E0809362
:1029B000850186E10E94E908882309F48FC2F601A7
:1029C000E058FD4F80818058808381E080938501AD
:1029D00085C2173110F40FEF0DC0143250F01033D0
:1029E00010F401E007C01C3310F003E003C002E064
:1029F00001C000E084E10E94E908882311F010E0A2
:102A00002CC01F3351F1112341F183E00E94E608ED
:102A10008823B1F48FE00E94E908882389F0402FD1
:102A2000552747FD50952091640130E021703070AA
:102A300082E090E0821B930B481759070CF4145F57
:102A400083E00E94E608882341F48EE00E94E908B2
:102A5000882319F00F3F09F01C500E944509882374
:102A600021F08CE0089F102D112484E00E94E908D9
:102A70008111195E89E00E94E9088111185E85E0E4
:102A80000E94E9088111175E8AE00E94E90881111D
:102A9000165E033069F186E00E94E9088111155E37
:102AA00087E00E94E9088111145E8BE00E94E9082A
:102AB0008111135E81E10E94E9088111125E8CE0B0
:102AC0000E94E9088111115E82E10E94E9088111EA
:102AD000105E8DE00E94E90881111F5D80E10E9477
:102AE000E90881111E5D83E10E94E90881111D5DE5
:102AF000F601E058FD4FE081EF3F11F41F3319F468
:102B00008E2F807C182B1E17F9F080917702882376
:102B100029F080E036D881E00E94BE0680E892E08D
:102B2000C80ED91EF601108381E080938501809143
:102B30007702882349F0412F42954695469541708A
:102B4000812F8F7360E007D81F3F79F0812F0E949B
:102B5000D50B80918501882321F080E00E941D0A19
:102B60000FC080E00E944F0A0BC00E94750B80E0EE
:102B70000E94200A83E00E94200A80E00E941A0A34
:102B800083E00E94E908882301F188E00E94E608BA
:102B90008823D9F0409180028091590190E00197FB
:102BA00030E002C02C933F5FE32FF0E0E817F90715
:102BB00044F4DF01A058BD4F11962C9111972F3F7F
:102BC00089F7E058FD4F408326C088E00E94E9085D
:102BD000882329F183E00E94E608882301F13091DF
:102BE00080028091590190E0019720E008C02F5F9A
:102BF000E22FF0E0E058FD4F3083342F542FE22FC6
:102C0000F0E0E817F9072CF4E058FD4F41814F3F01
:102C100071F75093800281E08093850123C18FE09A
:102C20000E94E9088823B9F083E00E94E60888231F
:102C300091F020915901E0E8F2E090E006C08E3377
:102C400011F08F5F80839F5F3196921720F780810C
:102C50008F3FA9F7E0CF8EE00E94E9088823B9F002
:102C600083E00E94E608882391F020915901E0E872
:102C7000F2E090E006C08B3011F0815080839F5FBE
:102C80003196921740F680818F3FA9F7C4CF88E034
:102C90000E94E908882331F483E00E94E908882330
:102CA00009F4E0C06091970180917702882309F4CC
:102CB00074C0162F111F1127111F812F0E94C10DE3
:102CC00081E00E94BE0683E00E94E90840917B02F9
:102CD0008823E1F04423C1F480915901282F30E08A
:102CE0002150304090E0E92FF0E0E217F3074CF478
:102CF000492F4F5FE058FD4F80818F3F11F0942F97
:102D0000F2CF90937B0218C0415014C0E42FF0E042
:102D10009F012F5F3F4F8091590190E0281739079D
:102D20002CF4E058FD4F80818F3F19F410927B0204
:102D300003C04F5F40937B020E948F0A80917B0209
:102D40000E949C0AE0917B02F0E0E058FD4F8081F8
:102D5000809397018F3F69F481E00E944F0A82E0DF
:102D60000E944F0A80E00E941A0A80E00E94200A16
:102D700079C080E00E944F0A80918501882319F074
:102D800080E00E941D0A80919701482F4295469548
:102D9000469541708F73612F1BC088E00E94E9083F
:102DA000882309F43FC080917C028823C1F466DC4B
:102DB00010927B0280918002809397018F3F09F4EB
:102DC00051C0482F42954695469541708F7360E0FB
:102DD0000E94AB0D809197010E94D50B43C080915A
:102DE0006001882321F481E08093600114C0409148
:102DF0007A02E42FF0E09F012F5F3F4F809159014D
:102E000090E0281739072CF4E058FD4F80818F3F60
:102E100029F41092600110927A0224C04F5F40930F
:102E20007A0220C0809160018823E1F080917A02CB
:102E3000882321F014C02F5F20937A0220917A0218
:102E4000E22FF0E08091590190E00197E817F9072F
:102E50004CF4E058FD4F80818F3F69F703C08150EB
:102E600080937A0287E10E94E9088823D9F1809152
:102E70007702882381F080917B02E82FF0E0319681
:102E80008091590190E0E817F90724F4E058FD4FCC
:102E90008FEF808329DC1092600180E00E941D0A80
:102EA0003BDC0E944E098091CE0180937F020E94FC
:102EB0002009882319F0815080937D0287E10E94C8
:102EC000E908882369F380917F0260917D025DDCCF
:102ED0001092850180E00E94200A04C0112309F4A9
:102EE00088CD77CD2596E8E058C681E080937C02B6
:102EF00076CC0F931F93CF93DF93182F062F0E944A
:102F0000800BC12FD0E043E0CC0FDD1F4A95E1F7E5
:102F1000C00FD11D34E0CC0FDD1F3A95E1F700E87A
:102F200012E0CE010E94570FF80181938F01219684
:102F3000F2E000391F07A9F780918F02813011F468
:102F40008FE001C080E1809359011092850180E0FB
:102F50000E94200A0E94800BDF91CF911F910F9158
:102F600008950F931F930091C70110927D02109254
:102F7000770210927C021092600110927E021092F1
:102F80007B021092970180915C01882319F40E94C2
:102F9000D50004C00E94E6020E9467080E944E0904
:102FA0008091CE0180937F0260917D02A2DF0E941A
:102FB0007A0A8091CE010E949C0A0E944E0980915B
:102FC000C701801791F00E94E60210927E0280E015
:102FD0000E94C10D0E943D080E949D070E947A0A2E
:102FE0000E94800B1F910F91089590917F02809114
:102FF000CE01981791F080917702882309F074DB55
:103000008091CE0180937F0260917D0272DF0E94E9
:103010008F0A8091CE010E949C0A80917C028823B5
:10302000D1F4809177028823B1F480917D028F5F83
:103030000E94EA0A0E942009182F882361F00E944A
:10304000680B812F0E94EA0A612F615060937D0214
:1030500080917F024EDFC3DBB0CFAC0120E030E0D7
:10306000DA01A20FB31F8C91FB01E20FF31F9081D5
:10307000891711F080E008958C918F3F29F02F5F20
:103080003F4F2032310561F781E0089560917B0266
:103090006093D202909190019923A9F080919101BF
:1030A000882389F450915B01262F30E0852F90E032
:1030B000019740915A012817390711F4842F1CC039
:1030C0005417F8F40BC0809191018823D1F08091BE
:1030D000920187FF05C08F5F80939201862F0CC0FD
:1030E000882321F08150809392010BC010929101AE
:1030F000992321F080915A018150089580915B01BC
:103100000895862F8F5F0895A0E0B0E0E9E8F8E128
:1031100025C5B090C70180915C01882319F40E94F5
:10312000D50002C00E94E60280915C01813019F452
:103130000E946E0802C00E9467080E947A0A0E94DC
:10314000AB0B1092B002109290028FEF8093B102FD
:103150008093910281E00E94EA0A1092D1021092BB
:10316000790210927B0210927502109274021092F2
:10317000D002109284011092830110928D0110925E
:103180008F01109290011092910181E080935A0179
:103190008091590180935B01109292010E948F0AE5
:1031A0008091C7018F3021F08B3011F0873019F4F6
:1031B0008091CE0103C08091CE01877080938B01F6
:1031C00080938C018091CE010E949C0AFF2400E034
:1031D000CC24EE24DD24D39485E0982EAA24AA944E
:1031E00002C0FF2400E00E944E098091C7018B15A8
:1031F00039F0833029F4D0928F0181E20E941D0AB8
:103200009091C7019B15E9F08091D1028823C9F400
:103210001092D10210928F010E943D080E949D07DA
:10322000109284011092830110925F011092890123
:1032300010928A01109288010E947A0A0E94AB0BB8
:103240008EC280918F018823F1F09330E1F4E091F8
:103250007402F0917502ED52FD4F808180937D02E2
:1032600044DE8091640182FFBECFE0917402F09150
:10327000750280917D02DF01A057BD4F8C93ED5206
:10328000FD4F8083B0CF82E00E94E908882341F19E
:1032900087E10E94E608882319F5809194019091B6
:1032A000950186509D40C0F48091940190919501C4
:1032B0008E54914088F0609194017091950180E660
:1032C0009AEEFCD3709395016093940180919401E0
:1032D000909195010E94070210929501109294011D
:1032E00080E00E94E908882349F00E94680B0E9450
:1032F000AB0B82E20E941A0A1092870180E00E94C2
:10330000EC08882379F120E030E0F901E057FD4F27
:10331000D901AD52BD4F8C9180832F5F3F4F20323A
:10332000310599F78091D1028823C9F420E030E07B
:10333000F901E055FD4FD901A057BD4F8C91808315
:103340002F5F3F4F2032310599F7809184018093A0
:10335000830183E00E944F0A84E00E944F0A82E2C8
:103360000E944F0A80E00E94E608882351F110E095
:103370000BC0E12FF0E0ED52FD4F8081883040F42A
:103380008F5F0E94EA0A1F5F80918701181788F3F8
:103390000E943D09882309F47CC1909187019032F5
:1033A00008F077C1E92FF0E0ED52FD4F81508083A6
:1033B000E92FEF5FE0938701F0E0ED52FD4FA0822F
:1033C00068C18FE00E94E608882331F48EE00E94F5
:1033D000E608882309F46DC00E941A09182F8FE0AF
:1033E0000E94E908882329F48EE00E94E9088823D6
:1033F00039F00E94680B0E94AB0B82E20E944F0AD8
:103400008FE00E94E608882301F184E00E944F0AC1
:1034100083E00E941A0A1F3F11F0109384018091EB
:10342000830187FD0AC00E94620B882331F40E9449
:10343000AB0B809183010E94590B90918401809184
:103440008301981761F1892F28C08EE00E94E60859
:10345000882329F183E00E944F0A84E00E941A0A1F
:103460001F3F19F01C50109384018091830118169E
:1034700064F0845F0E94620B882339F40E94AB0BD6
:1034800080918301845F0E94590B90918401809107
:103490008301981721F0892F845F0E94470B809148
:1034A000D102882309F0F5C08091840180938301C3
:1034B000F0C08FE00E94EC08882329F48EE00E947F
:1034C000EC08882321F00E94680B0E94AB0B0E943D
:1034D0002009182F87E10E94E6088823F1F51123BF
:1034E00009F0DAC20E9449098823B9F18091C70125
:1034F0008F30A9F010C020E030E0F901E055FD4F19
:10350000D901A057BD4F8C9180832F5F3F4F203250
:10351000310599F714C08B3011F0873019F4809180
:10352000CE0103C08091CE01877080938C01809181
:10353000D102882321F480918C0180938B018091AA
:10354000D102882351F40E948F0A80918C010E943D
:103550009C0A809184018093830180915C01823078
:1035600021F00E9479078093860120918601822FA5
:1035700082958F708C3011F50E94600787FD34C0F2
:10358000282F26952695269520938C01982F9770A5
:1035900090939002A09291028091D102882331F4FD
:1035A00020938B019093B002A092B1020E943A0B3B
:1035B000809190028F5F0E94EA0A16C08930A1F4C0
:1035C00030E02F7030708091C10190E028173907EA
:1035D00059F40E946007982F9C538053893120F43E
:1035E000909384019093830180E992E060EB72E014
:1035F00034DD8823D9F4809191028F3F49F4809182
:10360000B1028F3F29F48091B0028F5F0E941A0BA4
:10361000C0E9D2E088818930D0F58F5F0E94EA0A44
:10362000219682E0C03BD807A9F731C0C0EBD2E0B9
:103630009881993060F58091D1028823B9F0E091AA
:10364000D002F0E0E055FD4F8081981779F4892F82
:103650008F5F0E94240B8823A9F488818F5F0E94CA
:10366000100B88818F5F0E941A0B0CC0892F8F5F0F
:103670000E94240B882311F00E94AB0B88818F5F7E
:103680000E94EA0A219622E0C03DD20789F60E94F4
:10369000651042D880915C01882349F481E00E9442
:1036A000EC08882321F08091D102882389F480914D
:1036B0005C01823029F4809186018C3F49F055C02D
:1036C000813009F052C00E945508882309F44DC08A
:1036D0001092D10210927E021092900110929101EC
:1036E000D0925A018091590180935B01109292010E
:1036F00080E00E94C10D0E949D0780915C01813095
:1037000011F00E943D0881E20E944F0A0E94AB0B1B
:103710000E948F0A8091C7018F3021F08B3011F009
:10372000873019F48091CE0103C08091CE0187705B
:103730000E949C0A8091C7018B1509F489C01092E0
:103740008F01109284011092830110925F011092F8
:10375000890110928A01109288010E947A0A0E94BF
:10376000800BCDB7DEB7EBE015C280915C018823FA
:1037700049F481E00E94EC08882321F08091D10275
:10378000882391F080915C01823031F48091860130
:103790008A5F823048F05CC0813009F059C00E94D5
:1037A0004308882309F454C081E20E941A0A8091D8
:1037B000C7018F3021F08B3011F0873069F40E94FF
:1037C0004909882319F08091CE0102C080918B01B4
:1037D0006091B0028EDB11C08091CE018770609144
:1037E000B0020E949F0F80915202909153029093D9
:1037F0007502809374020E94E00F109297018091ED
:103800005C01823021F4809186018B3F31F010926F
:10381000D00210927B021092790210925D011092F8
:1038200068011092670110926B0110926D01109265
:103830006C0110925F01D092D102D0927E028AEF89
:103840000E94140780915C01813011F00E9475087C
:1038500080918F01882369F08091C701833049F0FE
:1038600010928F01109260010E947A0A81E20E94F8
:103870001A0A80E00E94E608882351F083E00E9443
:10388000E908882329F080915A01815080937B02B6
:1038900087E10E94E6088823D1F082E00E94E908CF
:1038A000882351F090E080919301882309F491E0FE
:1038B00090939301CC24C3940E944109FF2011F4FA
:1038C000F82E5FC0002309F05CC0082F5AC086E1C3
:1038D0000E94E908882329F486E10E94EC088823E5
:1038E000A1F090E080918901882309F491E0909300
:1038F000890186E10E94E608882321F082E00E9487
:103900001A0A03C082E00E944F0A85E10E94E9087A
:10391000882329F485E10E94EC088823A1F090E037
:1039200080918801882309F491E09093880185E1D2
:103930000E94E608882321F081E00E941A0A03C051
:1039400081E00E944F0A84E10E94E908882329F45B
:1039500084E10E94EC088823A1F090E080918A0124
:10396000882309F491E090938A0184E10E94E6089B
:10397000882321F088E00E941A0A03C088E00E9490
:103980004F0A88E00E94E908882349F083E00E94FA
:10399000E608882321F07ADB80937B021BC083E05A
:1039A0000E94E9088823C9F088E00E94E60888237D
:1039B000A1F08091D20280937B02809191018823B3
:1039C00049F08091920187FF02C0815001C08F5F52
:1039D00080939201EE24E39423C088E00E94E908DA
:1039E000882361F0EE20D9F480918E018F5F80935F
:1039F0008E018630A8F090928E0112C083E00E9462
:103A0000E908882369F0EE2051F480918E018150FD
:103A100080938E018F5F21F410928E0101C0EE24FD
:103A200087E10E94EC08882309F4DDCBCC2011F05B
:103A3000CC24D9CBD092910180915B01815090919F
:103A40007B02891B80939201FF2059F4002369F4C3
:103A5000D0925A018091590180935B01109290019C
:103A6000C2CB002311F4FF24BECBEF2DF0E0E158D0
:103A7000FD4F80818F3F09F4B4CBE02FF0E0E15897
:103A8000FD4F80818F3F09F4ACCBD0929001F09232
:103A90005A0100935B01A5CB0E943A0B812F815004
:103AA000809390028093D302A0929102A092D402BC
:103AB0008091D102882309F41ECD41CDAA1BBB1BE6
:103AC00051E107C0AA1FBB1FA617B70710F0A61B1E
:103AD000B70B881F991F5A95A9F780959095BC013F
:103AE000CD01089597FB092E07260AD077FD04D053
:103AF000E5DF06D000201AF4709561957F4F089598
:103B0000F6F7909581959F4F0895A1E21A2EAA1B72
:103B1000BB1BFD010DC0AA1FBB1FEE1FFF1FA2177D
:103B2000B307E407F50720F0A21BB30BE40BF50B7A
:103B3000661F771F881F991F1A9469F76095709503
:103B4000809590959B01AC01BD01CF0108952F9206
:103B50003F924F925F926F927F928F929F92AF921D
:103B6000BF92CF92DF92EF92FF920F931F93CF936A
:103B7000DF93CDB7DEB7CA1BDB0B0FB6F894DEBF01
:103B80000FBECDBF09942A88398848885F846E8427
:103B90007D848C849B84AA84B984C884DF80EE8071
:103BA000FD800C811B81AA81B981CE0FD11D0FB67A
:103BB000F894DEBF0FBECDBFED010895EE0FFF1FDD
:0C3BC0000590F491E02D0994F894FFCFDB
:103BCC007F20640409050A06070B110C120D101353
:103BDC001415160405060711121013201B191C1AB4
:103BEC00180F0C0E0B0D0A0920191A180C0B0A09C8
:103BFC002221252320191A18241B1C0F0E0D040337
:103C0C000A0C0B090801020026271D1E1F10121199
:0C3C1C00131415161705060701100110FF
:00000001FF
